:100000000C9439030C9456030C9456030C94560329
:100010000C9456030C9456030C9456030C945603FC
:100020000C9456030C9456030C9498150C94D41409
:100030000C94D0210C9456030C9456030C94560344
:100040000C9456030C9456030C9456030C945603CC
:100050000C9456030C9474210C9456030C94560380
:100060000C9456030C9456030C9456030C945603AC
:100070000C9456030C9456030C9456030C9456039C
:100080000C9456030C9456030C9456030C9456038C
:100090000C9456030C9456030C9456030C9456037C
:1000A0000C9456030C9456030C945603C3060B078A
:1000B000100715071A071F07240729072E073307FC
:1000C000380744045207550758075B075E07460484
:1000D000610779071A081A08540854089F08A20AE9
:1000E000420AA20ABB089909AA09AA09AD0BB00BDA
:1000F000B30BB60BB90BBC0BBF0B7A0F7F0F890F7D
:100100007D0F820F870F850FE3120A13AC140A13B9
:10011000AC1452137513AC1470148314491E491E89
:100120005C1E5C1E521E5C1E5C1E5C1E491E491E2F
:10013000571E5C1E5C1E571E29002B00E000E100CC
:10014000000F00001E00140004001D00E3004D001D
:100150001F001A0016001B00E3002A002000080000
:1001600007000600E2002C0021001500090019001C
:1001700001514A00220017000A0005000000390062
:1001800035002F0000000007000046002E00300060
:10019000000000070000490023001C000B001100B4
:1001A00000004C00240018000D00100001514B000D
:1001B00025000C000E00360050002C002600120016
:1001C0000F00370051002A002700130033003800C9
:1001D00052004E002D003100340028004F00000076
:1001E0000100010001000100025300003A0001007B
:1001F000010001000100B9003B0001000100010005
:100200000100B7003C000100010001000100B60040
:100210003D00010001000100010001003E0001005D
:10022000010001000000A8000100A9000000AA00D0
:10023000000001004500BD000000BE000000AC0051
:100240003F000100010001000000AB004000010080
:10025000010001000100BB0041000100010001009C
:100260000100AE0042000100010001000100AD00EC
:1002700043000100010001000100BC004400010036
:100280000100010001000000010001000100010067
:1002900001000000010001000100010001000E5DED
:1002A00001000100010001000100C95C0100010022
:1002B000010001000100CA5C010001000100010011
:1002C00001000D5D01000100010001000000C35CA0
:1002D000010001000000010000000C5D0100A5000C
:1002E0000000A6000000C25C010001000100010046
:1002F00000000B5D01000100010001000100010090
:1003000001000100010001000100C55C01000100C5
:10031000010001000100C65C0100010001000100B4
:1003200001000100005C010001000100010000006B
:1003300000010101010101010101020202020202A8
:10034000020202030303030303030304040404047B
:100350000404050505050506060606060707070742
:100360000708080808090909090A0A0A0B0B0B0CF7
:100370000C0C0D0D0D0E0E0E0F0F0F101011111194
:100380001212131314141515161617171818191915
:100390001A1A1B1B1C1D1D1E1E1F2020212222237A
:1003A0002424252626272829292A2B2C2D2D2E2FBB
:1003B00030313232333435363738393A3B3C3D3ED2
:1003C0003F404142434445464748494A4C4D4E4FC1
:1003D00050515354555658595A5B5D5E5F61626483
:1003E000656668696B6C6D6F7072737577787A7B10
:1003F0007D7E8082838587888A8C8E8F9193959667
:10040000989A9C9EA0A2A3A5A7A9ABADAFB1B3B586
:10041000B7BABCBEC0C2C4C6C9CBCDCFD1D4D6D862
:10042000DBDDDFE2E4E7E9EBEEF0F3F5F8FAFDFF00
:1004300005010980A10185031A81002A83001601A4
:1004400000260300950175108100C0050C0901A16B
:100450000185041A01002A9C02160100269C0295BF
:100460000175108100C005010906A1018505050778
:1004700019E029E715002501950875018102050796
:10048000190029EF1500250195F075018102050875
:1004900019012905950575019102950175039101D1
:1004A000C005010906A101050719E029E715002586
:1004B00001950875018102950175088101050719EB
:1004C0000029FF150026FF00950675088100050824
:1004D0001901290595057501910295017503910191
:1004E000C009023B00020100A0FA09040000010358
:1004F00001010009211101000122400007058103CB
:1005000008000A090401000103000000092111018B
:1005100000012271000705820320000A1201100168
:1005200000000008EDFE07130100010203010403AF
:100530003000000016034500720067006F00640081
:100540006F007800200045005A00000008035A00A0
:100550005300410000000403090400047F3F1F64AE
:100560003214643214783C1E1E140A05FFAA7F550B
:10057000402223252628292A2C2D2F3032333536A8
:10058000383A3B3D3E4042434547494A4C4E505124
:10059000535557595A5C5E6062646668696B6D6F4B
:1005A00071737577797B7D7F81838587898A8C8E4E
:1005B00090929496989A9C9E9FA1A3A5A7A8AAAC56
:1005C000AEAFB1B3B4B6B8B9BBBCBEBFC1C2C3C590
:1005D000C6C7C9CACBCCCDCED0D1D2D2D3D4D5D632
:1005E000D7D7D8D9D9DADADBDBDBDCDCDCDCDCDD65
:1005F000DDDDDDDCDCDCDCDCDBDBDBDADAD9D9D849
:10060000D7D7D6D5D4D3D2D2D1D0CECDCCCBCAC9E0
:10061000C7C6C5C3C2C1BFBEBCBBB9B8B6B4B3B10F
:10062000AFAEACAAA8A7A5A3A19F9E9C9A989694AA
:1006300092908E8C8A89878583817F7D7B7977757F
:1006400073716F6D6B6968666462605E5C5A59575E
:10065000555351504E4C4A4947454342403E3D3B1D
:100660003A3836353332302F2D2C2A2928262523A7
:10067000220011241FBECFEFDAE0DEBFCDBF12E0B3
:10068000A0E0B1E0ECE5FFE402C005900D92AE31D0
:10069000B107D9F723E0AEE1B2E001C01D92A8395D
:1006A000B207E1F70E9476170C94AC270C94000077
:1006B0004F925F926F927F929F92AF92BF92CF9232
:1006C000DF92EF92FF920F931F93CF93DF9300D0AF
:1006D00000D01F92CDB7DEB7FC010081F18083818D
:1006E0009481892B39F01FEFF11206C091E00F3F82
:1006F00019F403C091E001C090E090FD56C76F016E
:1007000085E0DE01119601900D928A95E1F7F601E0
:10071000228189819A81222349F00E942723182F60
:10072000682F89819A810E94A12303C00E947423AB
:10073000182F24E5129FF001112436E0F39EE00DFE
:10074000F11D1124E00FF11DEE0FFF1FE85CFE4FBD
:1007500005911491F60182810930FDE51F0709F02A
:1007600040C0882309F4A9C09091610281E0890FFB
:100770008770987F853020F4892B8093610202C0B6
:10078000909361028091610287702FEF829FC00178
:10079000112495958795959587959927909389002C
:1007A0008093880090938B0080938A0090938D00B3
:1007B00080938C00409161025091620260916302CB
:1007C000709164028FE090E00E941426609176029E
:1007D0007091770280917802909179020E941B0FAC
:1007E0006CC00C303DE5130799F028F40B30EDE5B3
:1007F0001E0751F062C00D30FDE51F07B1F00E304D
:100800002DE51207A1F159C0882309F4CEC63CC0DA
:10081000882309F4CAC60E94970C81E00E94940CB8
:1008200021E04FEF6FEF8CEA0CC0882309F4BDC6BE
:100830000E94970C81E00E94940C21E040E86FEF49
:1008400086E50F900F900F900F900F90DF91CF9152
:100850001F910F91FF90EF90DF90CF90BF90AF90DE
:100860009F907F906F905F904F900C94111D882304
:1008700009F49BC60E94970C81E00E94940C21E031
:100880004FEF6FEF8BE1DDCF81E001C088E10F908A
:100890000F900F900F900F90DF91CF911F910F91BC
:1008A000FF90EF90DF90CF90BF90AF909F907F90A0
:1008B0006F905F904F900C94940CF6018281882386
:1008C00019F1033E3CE51307C1F050F4013E9CE5ED
:1008D000190781F0023EECE51E07B1F481E010C07B
:1008E000043EFCE51F0759F0053E2CE5120761F4B4
:1008F00084E006C010925D0205C082E001C083E082
:1009000080935D020E94710D17FF71C0F601828114
:10091000882309F46CC080918A0380931E02109290
:100920008A0380915D02813071F048F08230C1F01D
:100930008430E1F486EE0E94E52088E115C082EE65
:100940000E94B42413C083E00E946A2088E10E94C0
:10095000B42488E10E94892083E00E945F2006C0C1
:1009600082EE0E94B42487E50E94E5208FE39CE993
:100970000197F1F700C000005801E894B7F82CE0A7
:10098000E22EF12CC5010E2C02C0969587950A9493
:10099000E2F7282F2F7041F0822F90E02A3010F4D8
:1009A0004D9604C0069702C087E290E00E94E520C1
:1009B00094E0E91AF108ECEFEE16EFEFFE0611F7FE
:1009C00080915D02813039F040F0823031F0843026
:1009D00051F488E206C08CE204C082EE0E948920B5
:1009E00002C00E94E52080911E0280938A03033F8B
:1009F000FCE51F07C1F180F4083D3CE51307C9F091
:100A0000093D8CE51807D9F1073D9CE51907D1F59B
:100A100026E241EE61EE10C0053FECE51E0759F1FC
:100A200030F1063F2CE5120769F527E245EE66EE48
:100A300003C027E245EE65EEC6010F900F900F90C0
:100A40000F900F90DF91CF911F910F91FF90EF903A
:100A5000DF90CF90BF90AF909F907F906F905F900E
:100A60004F900C94AD1D26E241EE60EEE5CF27E2FB
:100A700045EE64EEE1CF26E241EE62EEDDCF28E204
:100A800041E0D9CFF6019281992309F44CC110922B
:100A90001F020230FCE51F0708F42FC106312CE5C8
:100AA000120738F098012A5F3C452730310508F0DD
:100AB00024C10E94562290937402809373020F30D7
:100AC0003CE5130709F4CFC008F042C008309CE5AC
:100AD000190709F4A8C0F0F40430FCE51F0709F475
:100AE00090C068F402303CE5130709F486C0033077
:100AF0001C4509F0DFC0809173028260D9C00630C6
:100B00009CE5190709F487C008F089C08091730239
:100B10008860CEC00B30FCE51F0709F495C068F46F
:100B200009303CE5130709F482C00A301C4509F07E
:100B3000C1C080917302886080C00D309CE51907A8
:100B400009F486C008F087C0809173028D7FB0C021
:100B50000A3FFCE51F0709F457C050F502313CE598
:100B6000130709F488C068F400319CE5190709F4FB
:100B70007EC001311C4509F09DC0809173028F7BBE
:100B800097C00431FCE51F0709F487C008F479C059
:100B900005311C4509F08EC08091730282FB22272B
:100BA00020F991E0922790FB82F990FB83F980C0B5
:100BB0000D3F8CE5180709F452C058F40B3FECE5E3
:100BC0001E0729F10C3F1C4509F074C08091740286
:100BD00060C00F3F2CE5120709F458C080F10115E1
:100BE0001D4509F067C080917402982F909591700F
:100BF0008E7F892B90FB81F94DC0809173028160BB
:100C000057C08091730219C0809174021BC08091FB
:100C1000740282603FC080917302806149C08091FC
:100C20007302806245C080917302806441C00E945B
:100C30004A208091730280683BC0846039C08091F3
:100C400074028260816026C0809173028E7F30C002
:100C50008091730219C080917302877F29C08091AF
:100C600074028D7F17C0809173028F7E21C08091A6
:100C700073028F7D1DC00E944A20809173028F777E
:100C800017C080917302877F8B7F12C0809174029E
:100C90008D7F8E7F809374020DC00E944A208091C8
:100CA000730287FB222720F991E0922790FB87F9B6
:100CB00080937302609173021091740284E090E05B
:100CC0000E940226612F81E290E00E9402260F908E
:100CD0000F900F900F900F90DF91CF911F910F9178
:100CE000FF90EF90DF90CF90BF90AF909F907F905C
:100CF0006F905F904F900C944A2080918A03063148
:100D0000FCE51F07A1F58A7A91E009F490E0909341
:100D10002002882311F065E301C069E288EF92E0C8
:100D20000E9421220EC006311C4509F03FC180916E
:100D30002002882309F437C465E388EF92E00E941B
:100D4000F9210F900F900F900F900F90DF91CF919E
:100D50001F910F91FF90EF90DF90CF90BF90AF90D9
:100D60009F907F906F905F904F900C94E1228272E1
:100D7000F801E25CFC45E431F10508F0BCC0EA5A38
:100D8000FF4F0C946C268091260280FF2EC08E7F30
:100D9000809326026091260270912702809128029A
:100DA000909129020E94250C109292029FEFE0E799
:100DB000F2E09150E040F040E1F700C000000F90F9
:100DC0000F900F900F900F90DF91CF911F910F9187
:100DD000FF90EF90DF90CF90BF90AF909F907F906B
:100DE0006F905F904F900C9479100F900F900F9030
:100DF0000F900F90DF91CF911F910F91FF90EF9087
:100E0000DF90CF90BF90AF909F907F906F905F905A
:100E10004F900C94970C4FE95CE068EA7CE02CC0A2
:100E200048EA5CE06FE97CE027C04DE55BE066E600
:100E30007BE022C046E65BE06DE57BE01DC045E45B
:100E40005BE061E57BE018C041E55BE065E47BE0E9
:100E500013C04DE25BE069E37BE00EC049E35BE079
:100E60006DE27BE009C047E35CE068E47CE004C03D
:100E700048E45CE067E37CE00F900F900F900F90E8
:100E80000F90DF91CF911F910F91FF90EF90DF9026
:100E9000CF90BF90AF909F907F906F905F904F905A
:100EA0000C94B81C65E082E00EC068E086E00BC0E0
:100EB0006EE089E008C064E18FE005C067E185E18C
:100EC00002C062E289E10F900F900F900F900F9097
:100ED000DF91CF911F910F91FF90EF90DF90CF9016
:100EE000BF90AF909F907F906F905F904F900C94C9
:100EF000A71C83E2CCCC01152CE51207D1F00E3DE6
:100F00001C4509F053C00F900F900F900F900F9059
:100F1000DF91CF911F910F91FF90EF90DF90CF90D5
:100F2000BF90AF909F907F906F905F904F900C9488
:100F300067220E944A208FEF94E3ECE081509040BA
:100F4000E040E1F700C00000F89481E08093E00009
:100F500080E28093D8001092C9008FE19EE401974F
:100F6000F1F700C000001DBA109268001CBC10BE52
:100F70001FBA10927A0010926E0010926F001092B9
:100F80007100109272001092C9001092BC0014B847
:100F900017B81AB81DB810BA1092BC0015B818B816
:100FA0001BB81EB811BA0C94003FFFC2F6010081B5
:100FB0001181992349F0C8010E942723F82E682F38
:100FC000C8010E94A12304C0C8010E947423F82E06
:100FD000B8018F2D0E94770D8C01B82EF601E580A7
:100FE000E2949FE0E922F280F1101092890380914F
:100FF0008703877079F0FF2069F080E2800F8830E6
:1010000048F082E00E94FE23809187038770AA2423
:10101000A3948111A12C912E92948FE09822892D76
:1010200090E08C30910508F08DC2FC01E659FF4F2D
:101030000C946C26812F807F1F70882311F01295ED
:10104000107FFF20B9F0112309F406C280E2800F5F
:10105000883010F0B11006C080918A03182B1093CD
:101060008A0305C080918903182B109389030E947D
:10107000E122F2C1802F0E948920112309F462C26B
:10108000005E1095083010F0B11006C080918A0300
:10109000182310938A0305C08091890318231093A5
:1010A00089030E94E1224EC2812F807F1F7080320F
:1010B00011F01295107FBB2021F0F1E0BF16E1F096
:1010C00028C0FF2081F080918B03EE2051F001E0D9
:1010D000E01207C0182B181709F434C210938B03C1
:1010E00031C2812B10C0EE2021F021E0E21609F47C
:1010F00029C20E94DB221FC0FF2041F031E03E15D3
:1011000008F420C2812F0E947F201CC2E1101AC265
:1011100012C0FF2019F0EE20A9F39EC1EE2059F075
:10112000093309F0ABC18FEF97EEE3E081509040B7
:10113000E040E1F7A1C1812F0E94742003C2812FFA
:1011400086958695837019F0813059F0FBC1FF2098
:1011500019F0C801937002C080E090E00E94851CE5
:10116000F7C1FF2019F0C801937002C080E090E041
:101170000E946F1CEDC1812F837009F069C0F110CE
:10118000E5C1902F929596959770990F990F802FA2
:101190008F70482E512C612C712C092E04C0440CE8
:1011A000551C661C771C0A94D2F704FF12C04FE04E
:1011B00050E060E070E004C0440F551F661F771FC9
:1011C0009A95D2F7DB01CA0180959095A095B095CC
:1011D00003C080E090E0DC0116951695412F437026
:1011E000423019F1C8F400918C0310918D032091C5
:1011F0008E0330918F03413059F084299529A62917
:10120000B729BC01CD0160237123822393230AC037
:10121000402A512A622A732ABC01CD01642975290A
:10122000862997290E94382491C184299529A629C5
:10123000B72900918C0310918D0320918E0330917A
:101240008F03BC01CD016027712782279327EACF46
:10125000FF2019F0812F817001C08695882309F441
:1012600075C1902F929596959770990F990F802F31
:101270008F70482E512C612C712C092E04C0440C07
:10128000551C661C771C0A94D2F704FF12C04FE06D
:1012900050E060E070E004C0440F551F661F771FE8
:1012A0009A95D2F7DB01CA0180959095A095B095EB
:1012B00003C080E090E0DC0116951695412F437045
:1012C0004230D9F068F500917602109177022091B2
:1012D000780230917902413059F084299529A62964
:1012E000B729BC01CD0160237123822393231EC043
:1012F000402A512A622A732A13C084299529A629D3
:10130000B7290091760210917702209178023091EE
:101310007902BC01CD01602771278227932706C07F
:10132000BC01CD0164297529862997290E94CD2306
:101330000DC11F70FF2039F0812F0E941724802FCC
:101340000E947F2003C1802F0E947420812F0E9461
:10135000D923FCC0802FF2EFBF1609F43EC0FB1565
:1013600038F020EFB21661F031EFB31689F16FC09B
:1013700093EFB916C9F1E4EFBE1609F44CC067C08B
:10138000FF2009F1E110DEC01F7181E090E0A0E0D4
:10139000B0E0AC01BD0104C0440F551F661F771FAC
:1013A0001A95D2F78091760290917702A0917802F7
:1013B000B09179028A019B01082719272A273B2728
:1013C000C901B80125C021E02E1508F4BBC0DCCF4F
:1013D000FF2029F0812F8F712CC0FF20D9F3812F9E
:1013E0008F710E94D923AEC0FF2079F01F7181E078
:1013F00090E0A0E0B0E0BC01CD0104C0660F771F13
:10140000881F991F1A95D2F703C060E070E0CB01E6
:101410000E94CD2397C0FF2079F01F71812F0E9479
:10142000172438E0139FC001112483608093870341
:10143000812F0E94172486C081E00E94FE2381E054
:101440008E1508F07FC082E00E94FE237BC0FF2043
:1014500039F0EE2009F4BECF802F0E94B42472C070
:10146000EE2009F4BCCF893349F49FEFE7EEF3E0B7
:101470009150E040F040E1F700C00000802F0E9452
:10148000892060C012EFB116E1F01B1538F020EF93
:10149000B21669F031EFB31611F12BC084EFB81614
:1014A000C9F0B81660F095EFB91671F022C0FF20B0
:1014B00009F44EC09091F70281E0892708C081E0CD
:1014C000F826F092F70244C0F11042C081E0809308
:1014D000F7023EC0F1103CC01092F70239C0FF2065
:1014E00029F08091F602882329F329C0EE2011F318
:1014F0002FC08091F602EE20C1F0882341F0909138
:10150000F70281E089278093F7021092F602802F7C
:10151000FF2019F00E94B4241BC00E94892086E09D
:10152000F60111928A95E9F713C0882389F0F1102A
:101530000FC09091F70281E089278093F702109203
:10154000F60206C088EF890D843010F40E949B1CBF
:10155000AA2059F18091870380FD27C0F6011282ED
:101560008595859585950E941724C6010E9458038C
:10157000809187038595859585950F900F900F90A5
:101580000F900F90DF91CF911F910F91FF90EF90EF
:10159000DF90CF90BF90AF909F907F906F905F90C3
:1015A0004F900C94D92369E2C8CB0F900F900F9005
:1015B0000F900F90DF91CF911F910F91FF90EF90BF
:1015C000DF90CF90BF90AF909F907F906F905F9093
:1015D0004F9008959091730292FF0DC0282F2871AB
:1015E000283019F4877F846006C0282F24712430A6
:1015F00011F48B7F886093FF0DC0282F287128314C
:1016000019F4877E846106C0282F2471243111F4D7
:101610008B7E88612091740220FF0DC0382F3871B5
:10162000383019F4877F816006C0382F317131302E
:1016300011F48E7F886021FF0DC0282F287128317A
:1016400019F4877E816106C0282F2171213111F4A0
:101650008E7E886194FD877E0895E6E2F2E0438104
:101660002CE0421B08F440E021E0628181810C946F
:10167000111DE6E2F2E043812CE0420F08F44FEF47
:1016800021E0628181810C94111DE6E2F2E0628129
:101690002FEF621B08F460E021E0438181810C940C
:1016A000111DE6E2F2E062812FEF620F08F46FEFA6
:1016B00021E0438181810C94111DE6E2F2E08181F9
:1016C00021E0438162818C500C94111DE6E2F2E02E
:1016D000818121E043816281845F0C94111DCF934D
:1016E000E82F873080F58091070190910801892BC0
:1016F00009F047C0CE2F64E670E080E40E943E25EA
:101700009093080180930701892BD1F464E670E07F
:1017100082E10E9495259093080180930701892B0F
:1017200079F481E090E001C0880FCA95EAF764E699
:1017300070E080950E9495259093080180930701A1
:10174000CF910C94EA2590E0FC013797E730F10542
:10175000C0F4EA58FF4F0C946C26209A289811C0C8
:10176000219A29980EC0229A2A980BC0239A2B9866
:1017700008C0529A5A9805C0539A5B9802C03E9A84
:101780004698CF910895CF93873008F03FC080915D
:10179000070190910801892B09F041C064E670E0CF
:1017A00080E40E943E259093080180930701892BD5
:1017B00011F0C0E027C064E670E083E10E94952547
:1017C0009093080180930701892B99F764E670E0F4
:1017D00081E40E943E259093080180930701892BA4
:1017E00041F784E690E00E94C52597FF05C09093DD
:1017F000080180930701DDCFC82FC0951092080122
:10180000109207010E94EA258C2F0AC09FB18FB168
:10181000807F869586959370892B809501C080E0A6
:10182000CF91089580912602282F269530E021152A
:10183000310519F48170826005C02532310524F02C
:1018400081708864809326020895CF92DF92EF9290
:10185000FF926B017C010E94120CB701A60188E087
:1018600090E0FF90EF90DF90CF900C941426809141
:101870002A02882319F0815080932A02609126025F
:101880007091270280912802909129020C94250CD6
:1018900080912A02833018F48F5F80932A0260912E
:1018A00026027091270280912802909129020C94BF
:1018B000250C9091260290FF36C09170811102C0D4
:1018C000926006C0853210F0986402C0880F982B91
:1018D00090932602662351F06091260270912702B0
:1018E00080912802909129020E94250C6091260285
:1018F000669570E04BE050E083E191E00E949F2705
:10190000892B19F01092920202C00E94211E81E0E0
:1019100080938E0220E040912902609128028091FC
:1019200027020C94111D089561E00C94590CE6E215
:10193000F2E080818160808386950C94940C809184
:1019400026028695815009F484E261E00C94590CDA
:101950008091260286958F5F853208F081E061E0F4
:101960000C94590CE6E2F2E083E0808311828FEF61
:1019700082838383148260817181828193810C943C
:10198000250CBF92CF92DF92EF92FF920F931F939D
:10199000CF93DF93E82EF62EE901E42FF0E06111FA
:1019A00006C0E05DFC4F8491B82EE82F71C0262F51
:1019B00030E0E05DFC4FE491FE2FCE2ED12C46E0CE
:1019C000849FC00111240FEF10E0B8010E9444264B
:1019D0004BEA4603C001479F900D11248E0D911DC7
:1019E0008E0D911D982F990F890FD801A21BB30B53
:1019F000AC9DA001AD9D500DBC9D500D1124B52E88
:101A0000F89ED0011124AB2FBB277801EA1AFB0AFC
:101A1000EC9CD001ED9CB00DFC9CB00D1124780124
:101A2000E81AF108E29EC001E39E900DF29E900D2F
:101A30001124892F9927081B190B0C9D90010D9DCE
:101A4000300D1C9D300D1124832F6230710591F0F3
:101A500048F461157105E1F061307105B9F48E2F1C
:101A6000EB2F16C06430710569F040F066307105E7
:101A700079F00CC08E2FE52FB32E0AC0E52FBF2EB4
:101A80008B2F06C0852FBE2EE32F02C0852FBB2EC5
:101A9000E9838883BA821B82DF91CF911F910F91D6
:101AA000FF90EF90DF90CF90BF900895CF93DF939A
:101AB00000D000D0CDB7DEB79091260290FF0AC0CB
:101AC0009E012F5F3F4F0E94C10C4B8169818A812B
:101AD0000E94BE1C0F900F900F900F90DF91CF913E
:101AE000089560915D028CE090E00C940226CF9303
:101AF000DF9324E5829FC0011124FC0146E0749F1E
:101B0000E00DF11D1124E60FF11DEE0FFF1FE85C43
:101B1000FE4FC591D491CE01C238D10569F1B0F420
:101B2000C133D10509F475C048F4C932D10509F4AF
:101B300069C0CA32D10509F473C085C0C533D10567
:101B400009F459C0C933D105B9F07DC0C33ED105F0
:101B500071F138F4C03ED105B1F0C23ED10511F1AA
:101B600072C0C63ED105B9F1C73ED105C9F1C43E28
:101B7000D10509F068C024C02091730220FD5DC02A
:101B800021FD5BC060C02091730220FD50C02091F8
:101B9000740220FF4DC18091730284FD47C183EE22
:101BA00090E046C12091730222FF42C1F4CF8091A0
:101BB000730282FD3FC08091740280FD3EC0EBCF76
:101BC0002091740221FF34C18091730284FD2EC1E3
:101BD00087EE90E02DC12091730223FF29C1F4CF3D
:101BE0008091730283FD2CC08091740281FFECCF41
:101BF00084EE90E01DC12091730225FF19C189E296
:101C000090E016C12091730225FF12C185E390E098
:101C10000FC12091730226FF0BC18AE290E008C138
:101C20002091730226FF04C181E390E001C189E3A2
:101C300090E0FEC082EE90E0FBC080EE90E0F8C045
:101C400086EE90E0F5C0C11552E5D50708F06BC0EF
:101C5000C11521E5D20728F09C2F8827816F906A53
:101C6000E7C0C83ED10570F5C03ED10508F0E0C020
:101C7000C83AD105B8F4C53AD10550F08C2F855A31
:101C8000C82FD0E0C351DE4F888190E09064D0C06F
:101C9000C130D10509F4CCC008F4C8C0249708F4B9
:101CA000C5C0C6C0CF3BD10508F0C0C08C2F885A34
:101CB000C82FD0E0CC0FDD1FC051DE4F8881998145
:101CC0009464B6C0C11540E5D407F0F0CE01F4E04D
:101CD00096958795FA95E1F7282F23703C2F33705E
:101CE00081E090E002C0880F991F3A95E2F79C6866
:101CF000922B2C2F2F702695269550E2259F900130
:101D00001124822B932B94C0C11550E4D50720F0E9
:101D1000CE019F70906A8CC09E013A9521153F417B
:101D200008F486C083C0C11556E5D50708F03FC04A
:101D3000C11585E5D80748F08C2F0E94EA0A8F71FB
:101D400090E0982F8827906273C0C11524E5D207D0
:101D500028F09C2F8827846F906A6AC09E012370A8
:101D600033279C2F96959695C115D34580F441E075
:101D700050E002C0440F551F2A95E2F780E2989F79
:101D800090011124CA01822B932B9C6851C041E021
:101D900050E002C0440F551F2A95E2F780E2989F59
:101DA00090011124CA01822B932B9A6841C0C1155E
:101DB0005AE5D50778F5C11589E5D80710F18C2FBC
:101DC0008F700E94EA0A9E0194E0369527959A95B5
:101DD000E1F72F7030E0322F22273069A901482B1C
:101DE0000EC090568115904208F58D2F8F710E947C
:101DF000EA0A9E01332730628F71A901582BCA016C
:101E000017C0C11528E5D20788F09C2F8827806F5E
:101E1000906A0EC0C1154BE5D40740F0CE01C11544
:101E20005CE5D507F0F69927906602C080E090E067
:101E3000DF91CF910895CF92DF92EF92FF920F93AF
:101E40001F936C01EE24FF24C114D104E104F104BA
:101E500011F0E0E103C06B017C01E0E033272F2D9E
:101E60001E2D0D2D011511052105310519F0E85F15
:101E70006801790197018601F4E036952795179559
:101E80000795FA95D1F7011511052105310519F0CE
:101E9000EC5F680179019701860152E0369527953C
:101EA000179507955A95D1F70115110521053105AB
:101EB00019F0EE5F68017901970186013695279543
:101EC00017950795012B022B032B09F0EF5F56980E
:101ED0005E9825982D9826982E9827982F980E2F43
:101EE00010E0F8013197E730F105A8F4E358FF4F0F
:101EF0000C946C26259A2D9A0EC0259A2D9A269A16
:101F00002E9A09C0259A2D9A04C0259A2D9A269AB0
:101F10002E9A279A2F9A1F910F91FF90EF90DF90A2
:101F2000CF90089580E290E090930801809307019C
:101F30008091240281110EC00E94382581E0809397
:101F400024022FEF83ED90E3215080409040E1F791
:101F500000C0000064E670E080E40E943E2590939B
:101F6000080180930701892B09F04EC064E670E0F8
:101F700080E00E9495259093080180930701892BAA
:101F800009F042C064E670E080E00E9495259093DD
:101F9000080180930701892BB9F564E670E08FE3AF
:101FA0000E9495259093080180930701892B61F584
:101FB0000E94EA2564E670E080E40E943E2590934A
:101FC000080180930701892BF9F464E670E08CE046
:101FD0000E9495259093080180930701892BA1F415
:101FE00064E670E080E00E9495259093080180935C
:101FF0000701892B49F464E670E08FE30E94952580
:1020000090930801809307010E94EA2580910701BF
:102010000895CF93DF9356985E9825982D9826982B
:102020002E9827982F98C8E8D0E08FEF90E09983FA
:102030008883AAE8B0E011969C938E93ECE8F0E0D8
:1020400091838083259A2D9A2FEF80E792E021508B
:1020500080409040E1F700C00000269A2E9A2FEFB2
:1020600080E792E0215080409040E1F700C00000FE
:10207000279A2F9A2FEF80E792E0215080409040DE
:10208000E1F700C0000025982D982FEF80E792E03F
:10209000215080409040E1F700C0000026982E9823
:1020A0002FEF80E792E0215080409040E1F700C0A0
:1020B000000027982F988091610287702FEF829FF0
:1020C000C0011124959587959595879599279983B2
:1020D000888311969C938E939183808356985E9803
:1020E00025982D9826982E9827982F98DF91CF9194
:1020F0000895EF92FF920F931F93CF93DF938091F8
:10210000260280FF08C006EA12E082EEE82E82E096
:10211000F82EF8010CC0E6EAF2E011821082128279
:102120001382349682E0E23EF807B9F7ECCF928151
:1021300020813181892F291708F4822F381708F45C
:10214000832F8383381B3183281B2083981B928322
:102150003496EE16FF0659F70E94382564E670E0C3
:1021600084E80E943E25C6EAD2E064E670E08881F9
:102170000E94952564E670E089810E94952564E6B9
:1021800070E08A810E94952564E670E08B810E9450
:1021900095252496EC16FD0641F70E94EA25579AEC
:1021A0008BB18F779BB190682FB7F894E016F1064A
:1021B00099F0F80131918F0148E09BB9000000C00F
:1021C00037FF8BB9330F000000C000C000C08BB9CF
:1021D00000C04A9591F7EACF2FBF8FE391E00197B6
:1021E000F1F700C00000DF91CF911F910F91FF9098
:1021F000EF90089584B1807F84B985B1807F85B9DF
:102200008AB1837F8AB98BB1837F8BB93E98469818
:10221000089580B38C7080BB81B3836F81BB0895B8
:10222000BF92CF92DF92EF92FF920F931F93CF93C3
:10223000DF938091070190910801892B91F08091A3
:1022400023028F5F8093230281110BC00E94920FA3
:1022500090E09093080180930701892B11F40E946C
:10226000091095E6E92E92E0F92E8701C0E0B12C25
:1022700087E0C82ECC0E8C2F0E946F0B8C2D0E94F5
:102280006F0B8C2F0E94C30BF8019081891721F0EE
:102290008083DD24D39401C0D12C8C2D0E94C30BEC
:1022A000F8019781891719F0878381E001C080E0E8
:1022B000D82ABD280E94FA10CF5F0F5F1F4FC7308A
:1022C000B9F60E94C4216AEF70E00E9444269C0186
:1022D000682F809122028823E9F110922202E09176
:1022E0005B02F0915C02DF011E9690E07BEF0AEF4B
:1022F00010E080818B3FA9F0482F50E0681728F04C
:102300006901C41AD50AA60106C0E801C41BD50B91
:10231000AE01420F531F4E31510514F0708301C0BE
:1023200091E03196EA17FB0721F790932202B11052
:1023300002C0911111C010922102E0915B02F09154
:102340005C0290912202ADE7B2E0AF01425F5F4FC5
:1023500080E007C0B110EFCF809121028111EBCF57
:1023600017C0E70129917E013C91321741F030817D
:102370003B3F21F460832C9391E001C081E03196D2
:102380001196E417F50769F79093220280932102D2
:102390008B2DDF91CF911F910F91FF90EF90DF90E8
:1023A000CF90BF900895EF92FF920F931F93CF931A
:1023B000DF937C018B010E949116811119C0E70106
:1023C00001151105A1F08091E80085FD0AC08091FA
:1023D000E8008E778093E8000E949116882381F3AD
:1023E00007C089918093F10001501109E9CF80E085
:1023F000DF91CF911F910F91FF90EF9008951F9360
:10240000CF93DF93CDB7DEB7AA970FB6F894DEBFB0
:102410000FBECDBFE3E5F2E08091F100819322E0B1
:10242000EB35F207C9F780915402833009F460C09C
:1024300030F4813071F0823009F49AC0B1C08A3032
:1024400009F486C08B3009F46BC0893009F0A8C04C
:1024500020C080915302813A09F0A2C08091E80027
:10246000877F8093E8008091570290915802892BD2
:1024700021F460E28FE292E003C060E080E090E04F
:1024800070E00E9418178091E8008B778093E80035
:1024900087C080915302813209F082C08091570237
:1024A00090915802029708F07BC08091E800877FE6
:1024B0008093E8008091E80082FD05C08091510280
:1024C0008111F8CF6DC02091F3008091F20090E06F
:1024D000922B029729F48091F1008B7F813021F4B7
:1024E0008091F10080932E028091E8008B7754C098
:1024F00080915302813A09F053C080915702909124
:102500005802892B09F04CC08091E800877F8093A6
:10251000E8008091E80080FFFCCF8091060137C081
:10252000809153028132E1F58091570290915802D7
:10253000892BB1F58091E800877F8093E8000E94A5
:10254000C41680915502809306010E944A2028C03B
:1025500080915302813221F58091E800877F80933A
:10256000E8000E94C4168091560280932D0218C084
:1025700080915302813AA1F48091E800877F809393
:10258000E8008091E80080FFFCCF80912D028093CD
:10259000F1008091E8008E778093E8000E94C416D5
:1025A0008091E80083FFD8C180915302909154023A
:1025B000492F50E04A30510508F0CEC1FA01EC57DE
:1025C000FF4F0C946C26803821F0823809F0C4C18A
:1025D00008C080914F0290915002992389F0826047
:1025E0000FC0809157028F70873008F0B5C180937B
:1025F000E9008091EB0085FB882780F91092E900C3
:102600009091E800977F9093E8008093F1001092FA
:10261000F10071C1282F2D7F09F09EC1882319F088
:10262000823061F099C180915502813009F094C1E6
:10263000933009F080E0809350022EC080915502C3
:1026400081112AC0809157028F702FEF280F2630FA
:1026500008F082C18093E9002091EB0020FF1CC0AC
:10266000933021F48091EB00806214C09091EB00D4
:1026700090619093EB0021E030E0A90102C0440F8B
:10268000551F8A95E2F74093EA001092EA00809184
:10269000EB0088608093EB001092E9008091E800E5
:1026A000877F2CC1811158C1109155021F778091ED
:1026B000E3008078812B8093E3008091E800877F9E
:1026C0008093E8000E94C4168091E80080FFFCCF50
:1026D0008091E30080688093E300111102C082E0E2
:1026E00001C083E08093510237C18058823008F0E6
:1026F00033C180915502909156028C3D53E095076D
:1027000079F583E08A838AE289834FB7F894DE0102
:10271000139620E03EE051E2E32FF0E050935700A3
:10272000E49120FF03C0E295EF703F5FEF708E2FC2
:1027300090E0EA3010F0C79601C0C0968D939D934B
:102740002F5F243149F74FBF8091E800877F809346
:10275000E8006AE270E0CE0101960E941817BAC044
:102760004091570250915802292F332723303105C9
:10277000B1F068F42130310509F4FDC02230310593
:1027800009F0EAC08BE390E0E1EEF4E050C02132C2
:10279000310581F12232310509F439C0DDC09927B4
:1027A00081309105B9F070F082309105D9F003972E
:1027B00009F0D2C0EEE2F5E0E4918E2F90E0EEE277
:1027C000F5E032C0E6E5F5E0E4918E2F90E0E6E535
:1027D000F5E02AC0ECE4F5E0E4918E2F90E0ECE423
:1027E000F5E022C0E4E3F5E0E4918E2F90E0E4E32D
:1027F000F5E01AC04115510509F4C2C04130510538
:1028000009F0AAC089E090E0ECE0F5E010C04115C5
:10281000510509F4BAC04130510509F09DC081E766
:1028200090E0E0E3F4E003C0009709F495C0209144
:10283000E800277F2093E8002091590230915A0246
:102840008217930708F49C0140E02115310589F1B6
:1028500080915102882309F43DC08530D9F18091DF
:10286000E80083FD37C08091E80082FD2FC0809191
:10287000E80080FFEACF4091F3008091F20090E001
:10288000942B2115310559F08830910540F444917D
:102890004093F1003196215031090196F2CF41E089
:1028A000089709F040E08091E8008E778093E80077
:1028B000CCCF4111CDCF0AC080915102882351F075
:1028C000853041F08091E80083FD04C08091E800EC
:1028D00082FFF2CF8091E8008B778093E8003CC0C4
:1028E0008038D1F58091E800877F8093E80080915F
:1028F00052028093F1008091E8008E778093E80087
:102900000E94C41629C0811127C080915502909160
:1029100056029927029704F58091E800877F8093FB
:10292000E80010915502109352020E94C416111132
:1029300006C08091E30087FD02C081E001C084E011
:102940008093510242E061EC81E00E94E31642E292
:1029500061EC82E00E94E3168091E80083FF1AC0D8
:102960008091E800877F8093E8008091EB0080628F
:102970008093EB000FC082E190E0ECE1F5E057CFEF
:1029800089E090E0E3EFF4E052CF80E490E0E1EA08
:10299000F4E04DCFAA960FB6F894DEBF0FBECDBFC0
:1029A000DF91CF911F9108951F920F920FB60F9252
:1029B00011242F933F934F935F936F937F938F9344
:1029C0009F93AF93BF93CF93DF93EF93FF93C09108
:1029D000E900CF708091EC00D82FD17080FDD0E855
:1029E0001092E9008091F000877F8093F000789446
:1029F0000E94FF111092E9008091F000886080939E
:102A0000F000CD2BCF70C093E900FF91EF91DF91E3
:102A1000CF91BF91AF919F918F917F916F915F9176
:102A20004F913F912F910F900FBE0F901F901895CF
:102A3000E8EDF0E080818E7F80831092E2001092BA
:102A4000DA001092E100A0EEB0E08C9181608C93EE
:102A500080818F77808319BCA7EDB0E08C918E7F49
:102A60008C9380818F7E8083109225020895CF926F
:102A7000DF92EF92FF920F931F93CF93DF93C8EDF6
:102A8000D0E088818F7E8883E7EDF0E080818160EF
:102A9000808384E082BF81E08093250288818E7FDD
:102AA000888302EE10E0F80110821092DA0081EEC5
:102AB000C82ED12CF601108288818F778883888177
:102AC0008068888388818F7D888319BC1092510229
:102AD000109252021092500210924F0290EEE92E84
:102AE000F12CF70180818B7F8083888181608883CE
:102AF00042E060E080E00E94E316F60180818E7F74
:102B00008083F801808181608083808188608083F8
:102B1000F70180818E7F8083888180618883DF9147
:102B2000CF911F910F91FF90EF90DF90CF9008957C
:102B30001F920F920FB60F9211242F933F934F9332
:102B40005F936F937F938F939F93AF93BF93EF9315
:102B5000FF938091E10082FF09C08091E20082FF33
:102B600005C08091E1008B7F8093E1008091DA00C5
:102B700080FF2AC08091D80080FF26C08091DA00B3
:102B80008E7F8093DA008091D90080FF18C080E1A9
:102B900089BD82E189BD09B400FEFDCF81E080934B
:102BA00051028091250281110FC00E9418150E94C8
:102BB00037158091E20084608093E20005C019BC63
:102BC00010925102109225028091E10080FF17C0FF
:102BD0008091E20080FF13C08091E2008E7F80939D
:102BE000E2008091E20080618093E2008091D80051
:102BF00080628093D80019BC85E080935102809157
:102C0000E10084FF43C08091E20084FF3FC080E187
:102C100089BD82E189BD09B400FEFDCF8091D80055
:102C20008F7D8093D8008091E1008F7E8093E100BA
:102C30008091E2008F7E8093E2008091E2008160CB
:102C40008093E20080915202882311F084E007C053
:102C50008091E30087FD02C081E001C083E08093A2
:102C600051020E944A200E949B1C10922C028091CB
:102C70002B02882349F080912602816080932602EE
:102C800060E086950E94590C0E94211E8091E1000F
:102C900083FF27C08091E20083FF23C08091E10081
:102CA000877F8093E10082E080935102109252026C
:102CB0008091E1008E7F8093E1008091E2008E7F21
:102CC0008093E2008091E20080618093E20042E024
:102CD00060E080E00E94E3168091F00088608093BD
:102CE000F000FF91EF91BF91AF919F918F917F91F4
:102CF0006F915F914F913F912F910F900FBE0F9069
:102D00001F90189520915102243021F4BC0184E0D9
:102D10000C9441210895BC016058710983E00C9422
:102D200041212091E4003091E50095E64091EC00CE
:102D3000842F817040FF23C08091E80080FD1DC07A
:102D400080915102882399F0853099F08091EB00B1
:102D500085FD11C04091E4005091E500241735072E
:102D600029F3915011F09A01E1CF84E0089582E0B7
:102D7000089583E0089581E0089580E008954091EA
:102D8000E80042FFDDCF08958091530287FF11C014
:102D90008091E80082FD05C0809151028111F8CF39
:102DA00011C08091E8008B770BC08091510288237D
:102DB00049F08091E80080FFF8CF8091E8008E779D
:102DC0008093E8000895982F973068F59093E90074
:102DD000981739F07091EC002091ED005091F000BF
:102DE00003C0242F762F50E021FD02C09F5FECCF5F
:102DF0003091EB003E7F3093EB003091ED003D7F52
:102E00003093ED003091EB0031603093EB00709324
:102E1000EC002093ED005093F0002091EE0027FD90
:102E2000E5CF80E008958F708093E90081E00895F8
:102E30002091590230915A022617370748F0611540
:102E4000710539F42091E8002E772093E80001C045
:102E5000B901FC0120E06115710579F18091510201
:102E60008823F1F18530F1F18091E80083FD3CC0C9
:102E70008091E80082FD2EC08091E80080FFEBCFBA
:102E80002091F3008091F20090E0922B6115710582
:102E900051F08830910538F421912093F100615070
:102EA00071090196F3CF21E0089709F020E08091A5
:102EB000E8008E778093E800CECF2111CFCF0AC0F3
:102EC00080915102882361F0853061F08091E800A3
:102ED00083FD0AC08091E80082FFF2CF80E0089570
:102EE00082E0089583E0089581E00895CF93DF9311
:102EF000CDB7DEB72A970FB6F894DEBF0FBECDBFB1
:102F000084B7877F84BF0FB6F894A895809160003E
:102F1000886180936000109260000FBE90E080E8AE
:102F20000FB6F89480936100909361000FBE85B74F
:102F3000806885BF85B7806885BF0E9418150E948C
:102F400037158091E20084608093E200789480914C
:102F500051028823A1F01091E9001F709091EC00BC
:102F6000892F817090FD80E8182B1092E9008091E4
:102F7000E80083FD0E94FF111F701093E90082E0BA
:102F800084BD93E095BD9AEF97BD80936E000E943B
:102F9000920F90E090930801809307010E94FA102D
:102FA0000E940911A5E6B2E0EDE7F2E011921D9250
:102FB00022E0EB38F207D1F78EE090E00E947E2607
:102FC00080935B0290935C02FC010E962BEF2193A1
:102FD000E817F907E1F780E090E00E94FC258F3EBA
:102FE0009E4F11F00E9467228CE090E00E94EE2537
:102FF00090E0A0E0B0E080935D0290935E02A09329
:103000005F02B093600289EA8093800089E0809338
:10301000810024982C983F988AB18F7C8AB96E9849
:10302000479A8BB180638BB9769A8FE090E00E94CB
:10303000F62560936102709362028093630290931D
:1030400064026770FFEF6F9FB0011124759567955B
:1030500075956795772770938900609388007093C2
:103060008B0060938A0070938D0060938C000E94A7
:10307000091080E090E00E94FC258F3E9E4F11F0E9
:103080000E94672282E090E00E94EE2580939402E5
:103090000E945622909374028093730283E090E022
:1030A0000E94EE25682F70E080E090E00E943824B6
:1030B00080917502811136C080E090E00E94FC256D
:1030C0008F3E9E4F21F00E9467220E94B20C88E042
:1030D00090E00E94F6256093260270932702809369
:1030E0002802909329026E7F71F40E94B20C88E04E
:1030F00090E00E94F6256093260270932702809349
:103100002802909329020E94120C10929202809140
:10311000260280FF04C060E086950E94590C81E081
:1031200080937502609176027091770280917802A7
:10313000909179020E941B0F89E091E090937B02AD
:1031400080937A02FAE5EF2EF5E0FF2E809151028E
:10315000853009F069C080915102843009F441C082
:1031600010927C0220E488E190E00FB6F894A895D4
:10317000809360000FBE20936000109292028091B5
:103180002C02811117C081E080932C0280912602CD
:10319000982F917090932B028E7F80932602FFEFE1
:1031A00020E782E0F15020408040E1F700C00000BD
:1031B0000E94791083B7817F846083BF83B7816069
:1031C00083BF7894889583B78E7F83BF0FB6F894BA
:1031D000A8958091600088618093600010926000E3
:1031E0000FBE80915002882309F4B0CF0E94920F45
:1031F00090E090930801809307010E94FA100E94CA
:103200000911EDE7F2E0119292E0EB38F907D9F7F6
:103210000E941011EDE7F2E081918111F5C022E0EA
:10322000EB38F207C9F792CF0E941011E5E9F2E0FE
:10323000ADE7B2E000E010E0302F2D9191919227A0
:1032400021F180E0DD24D3944D2D4923D1F08983F1
:103250003A832D2181E009F480E08B830E94C42110
:103260008160782F9D838C8349815A816B818D8108
:103270000E94941BF801EB56FD4F8081D826D08226
:1032800019C08F5FDD0C8630F9F60F5F1F4F0E30CF
:10329000110591F68FEF8E838F8318860E94C421CB
:1032A0008160782F9A8789874E815F8168858A85BA
:1032B0000E94941B80919202882309F499C0809106
:1032C0009102E0912602E695E81BE0938D028230A0
:1032D00059F4F0E0E859FA4FE4910E2F10E0E0E8DD
:1032E000CE2EEBE1DE2E58C0863059F4F0E0EB59DB
:1032F000FA4FE4910E2F10E070E7C72E7BE1D72E36
:103300004BC0893061F4E695F0E0EE59FA4FE49154
:103310000E2F10E06BE1C62E6AE1D62E3DC08F3035
:1033200061F4E695F0E0E15AFA4FE4910E2F10E0D7
:1033300052E0C52E5BE1D52E2FC0853159F4F0E067
:10334000E45AFA4FE4910E2F10E042EBC42E4AE10A
:10335000D42E22C0883199F0833241F4F7010591CF
:10336000149130EDC32E3CE1D32E16C0843271F49B
:1033700004EF11E025E4C22E2AE1D22E0DC008EEA2
:1033800013E09FE7C92E9AE1D92E06C000ED17E0A1
:103390008AE1C82E8AE1D82E80918E02882389F096
:1033A00010928E020E94C421980120953095820FC0
:1033B000931F90938C0280938B0210929002109234
:1033C0008F0280918B0290918C020E949A2180172B
:1033D000910770F0E0918B02F0918C020E0F1F1F8D
:1033E00010938C0200938B028BE892E0F601099512
:1033F0000E949B1C90919302891709F4A7CE0E940A
:103400009B1C80939302A2CE80E189BD82E189BD9D
:1034100009B400FEFDCF8091D8008F7D8093D80045
:103420008091E00082608093E0008091E00081FD67
:10343000FCCF8CCE0895EF92FF921F93CF93DF9332
:10344000EC0186EAE82E82E0F82E10E08C819701EC
:103450004091290260912802810F0E94C10C1F5ED9
:1034600084E0E80EF11C1F3F89F70E9479109A81D1
:103470008C8190FF02C08F5F01C081508C83DF91EF
:10348000CF911F91FF90EF900895EF92FF920F93CD
:103490001F93CF93DF938C01C6EAD2E0E12CF12C8D
:1034A000F8018481F7E0EF16F1041CF4882339F069
:1034B00002C0811104C09E014091290202C09E01F8
:1034C00040E060912802809127020E94C10C8FEF9A
:1034D000E81AF80A24969FE0E916F10409F70E9419
:1034E0007910F801848190E0019681709927848396
:1034F000DF91CF911F910F91FF90EF900895EF9280
:10350000FF920F931F93CF93DF93EC018C819D81EA
:103510000196817099279D838C8386EAE82E82E04C
:10352000F82E10E005E5212F26958C819D81820FD4
:10353000911D817097014091290260912802809F1E
:10354000802D11240E94C10C1F5F84E0E80EF11C45
:103550001F3049F7DF91CF911F910F91FF90EF90AE
:103560000C9479100F931F93CF93DF93C6EAD2E0A8
:10357000FE011182108212821382349682E0E23EB2
:10358000F807B9F700E010E08091A402082E000CC3
:10359000990B0817190794F080911F01082E000C51
:1035A000990B8017910754F09E0140912902609178
:1035B0002802809127020E94C10C04C0198218823F
:1035C0001A821B820F5F1F4F24960F301105E1F600
:1035D0000E94791080911E019091A402980F9093FF
:1035E000A40220911F01280F20931F01121614F42A
:1035F0009E301CF0819580931E01DF91CF911F9129
:103600000F910895BF92CF92DF92EF92FF920F93A6
:103610001F93CF93DF93FC01828180FF03C0DD24E1
:10362000DA9402C0DD24D39406EA12E0C0E0D0E0D0
:103630002FE0B22EF801118210821282138294E0E0
:10364000E92EF12CC12C8091A3028C0D80312CF03D
:103650006B2D0E943626892F02C087FD815F082EC0
:10366000000C990BC817D90791F4809129028E9DFF
:10367000A0018F9D500D112455954795559547955F
:10368000980160912802809127020E94C10CCD0C04
:10369000F1E0EF1AF108B9F621960C5F1F4FCF3019
:1036A000D10541F60E9479108091A30291E0D912D0
:1036B00006C0811102C08EE007C0815005C090E0B5
:1036C0000196BE010E9458268093A302DF91CF91FC
:1036D0001F910F91FF90EF90DF90CF90BF900895D2
:1036E000CF93DF93EC01E6E2F2E0438162818C81CB
:1036F0000E94560D8C818F5F8C83DF91CF9108954E
:10370000CF93DF93EC01EC81F0E0EF58FA4F449156
:10371000E6E2F2E0628181810E94560D8C818F5F2A
:103720008C83DF91CF9108950F931F93CF93DF93F5
:10373000CDB7DEB767970FB6F894DEBF0FBECDBF2B
:103740004B8B5C8B6D8B7E8B8F8B0E891F8901154C
:10375000110531F05F3F31F481E04F3F19F403C0B0
:1037600081E001C080E080FD32C0242F30E0A1E084
:10377000B0E0042E01C0AA0F0A94EAF7852F90E06A
:10378000662319F07091F70205C0FC01E851FD4F66
:1037900070817A237723A1F046E0489FF001499F8A
:1037A000F00D1124E20FF31FEE0FFF1FEB5BFE4F36
:1037B00040815181FC01E851FD4F9081A92B06C049
:1037C000FC01E851FD4FA0958081A823A08386E0ED
:1037D000FE013D96DF01982F1D929A95E9F74D87DE
:1037E0005E876F87198B088BDE01179601900D920B
:1037F0008A95E1F7CE0107960E94601E81113EC0B6
:1038000086E0FE013796DE01119601900D928A95B1
:10381000E1F7FF81E8856A857B856115710531F0E7
:10382000EF3F31F481E0FF3F19F403C081E001C0B4
:1038300080E080FD23C020911E0330E0C901019685
:103840008770992740914F0350E08417950779F1CD
:10385000F983EA837D836C8396E0929FD001939FE6
:10386000B00D1124A15EBC4FFE01319601900D9266
:103870009A95E1F780931E030E94422416E08091FE
:103880004F0390911E038917F9F0189FC00111246E
:10389000815E9C4F0E94601E8823B1F080914F038F
:1038A00090E001968770992780934F03E8CF0E949C
:1038B0004A2010921E0310924F03E8E1F3E086E0E5
:1038C000DF011D928A95E9F767960FB6F894DEBF7F
:1038D0000FBECDBFDF91CF911F910F910895209121
:1038E000E6023091E7022817390771F09093E7025A
:1038F0008093E602E0917A02F0917B02309721F00A
:103900000084F185E02D099408952091E40230911E
:10391000E5022817390771F09093E5028093E402DD
:10392000E0917A02F0917B02309721F00680F781D6
:10393000E02D09940895E0917A02F0917B0230978E
:1039400021F00190F081E02D099480E0089590919C
:10395000260290FF04C09695981740F003C081118D
:1039600005C090E0961710F40C94A80C0C94940CDD
:10397000882311F0FA0101C0FB01099490912602FD
:1039800090FF0DC0E6EAF2E08183608342831382F8
:10399000349692E0E23EF907B9F70C947910089555
:1039A0000F931F93CF93DF9300D000D0CDB7DEB736
:1039B0008C018091A50281110AC09E012F5F3F4FAB
:1039C0004FEF6FEF0E94C10C8A818093A502F8012E
:1039D0008481813051F028F0823061F44091A50259
:1039E0000AC08091A50240E007C06091A50240E0B6
:1039F00080E003C040E080E060E00E94BE1CF8016F
:103A0000848190E0019663E070E00E9458268483F0
:103A10000F900F900F900F90DF91CF911F910F910A
:103A200008955F926F927F928F929F92AF92BF9212
:103A3000CF92DF92EF92FF920F931F93CF93DF937A
:103A400000D000D0CDB7DEB7182F762E042F622E0F
:103A50009091260290FF6DC0E92FE695AE2FB0E061
:103A6000A05EBE4F8C91809391029E7F923061F454
:103A70009E012F5F3F4F812F0E94C10C4B816981B6
:103A80008A810E94BE1C43C0823019F40091290231
:103A90003EC0863019F41091270239C08930D9F31D
:103AA0008931A9F5E9518E2F8170582EE695F0E005
:103AB000E459FA4FA590B49086EAC82E82E0D82E39
:103AC000E12CF12CBB249FE0892E912CAE9CC001EF
:103AD000AF9C900DBE9C900D1124B4010E94442611
:103AE000812F511002C0860F01C0861B9601402F06
:103AF000672D0E94C10C8FEFE81AF80A84E0C80E07
:103B0000D11C8FE0E816F10409F70E947910109398
:103B100027027092280200932902662051F06091DA
:103B200026027091270280912802909129020E941A
:103B3000250C0F900F900F900F90DF91CF911F9158
:103B40000F91FF90EF90DF90CF90BF90AF909F903C
:103B50008F907F906F905F9008950F931F93CF93F6
:103B6000DF93C62FD42F122FFC0182818823C9F046
:103B700060931F020E94C4219093E3028093E202AB
:103B800080E28C0F883008F057C0C77081E001C018
:103B9000880FCA95EAF7DF91CF911F910F910C948E
:103BA0007F2080911F02681330C08091E2029091C3
:103BB000E3020E949A21883C910538F500E20D0F3E
:103BC000CD17B9F080E28C0F883040F4C77081E0E7
:103BD00001C0880FCA95EAF70E947420083028F5C2
:103BE00081E09D2F977001C0880F9A95EAF70E9497
:103BF0007F20812F0E94E5200830F0F4D77081E00B
:103C000001C0880FDA95EAF70AC080E28C0F88308D
:103C100098F4C77081E001C0880FCA95EAF7DF9178
:103C2000CF911F910F910C947420812FDF91CF9130
:103C30001F910F910C94E520DF91CF911F910F916F
:103C4000089560912602669570E04BE050E083E1B4
:103C500091E00E949F27892B19F481E080939202C2
:103C60000E94C42190938C0280938B0208950E943D
:103C70006923292F2F70E92FE295EF704E2F50E026
:103C8000FA013297EE30F105B8F4E257FF4F0C9489
:103C90006C26803F99F018F4883E70F40FC0843F82
:103CA00059F40CC0883E50F0813F31F407C0822F98
:103CB000869586958695089580E0089581E008951B
:103CC000AF92BF92CF92DF92EF92FF920F931F932A
:103CD000CF93DF93CDB7DEB761970FB6F894DEBF11
:103CE0000FBECDBF8C0185E0F801DE011D9601906D
:103CF0000D928A95E1F7D8013C9111962C9111977C
:103D00001296EC90509118036091190380911B0357
:103D100090911C03009731F06F3F31F441E05F3F19
:103D200019F403C041E001C040E0B42FB170BB2ED4
:103D300040FD43C1F801C380D480A0901A03AA209B
:103D400009F4E2C040911D03C816D90628F0D60137
:103D5000A81BB90BCD0104C0809590958C0D9D1DBD
:103D6000FF24F394883C910548F0F12C407F09F042
:103D700090C088E193E00E94580317C1842F807F90
:103D800009F052C0621312C0531310C0FE2CE11090
:103D90000DC04F70406140931D0388E193E00E9485
:103DA000580380911D03F801858354C1CD2831F05B
:103DB0002F3F31F481E03F3F19F403C081E001C09F
:103DC00080E080FD03C081E08E2502C080E090E0AD
:103DD000F82FF170FF2E80FF1CC080914F0340919F
:103DE0001E0356E0841709F412C190E0589FF001B9
:103DF000599FF00D1124E15EFC4F6181261306C02E
:103E00006081361303C06281E61203C00196877099
:103E1000E9CFFE2CEE2009F41DC180911D038160C5
:103E200080931D03F12C16C1621308C0531306C002
:103E3000E11004C080911D03F80199C03D872E87D1
:103E40008D859E850E94371E882369F1EE2059F1E9
:103E500020911D03822F82958F7090E0029774F05D
:103E6000809118039091190398878F831986DB86B8
:103E7000CA862C87CE0107960E94580386E0F80177
:103E8000A8E1B3E001900D928A95E1F70E944C24DD
:103E90000DC0621771F03D872E878D859E850E942B
:103EA000371E81111AC0C8010E945803FF24F394E1
:103EB000D1C05313F0CFE110EECF80911D03F80174
:103EC0008583C8010E94580386E0E8E1F3E0DF0142
:103ED0001D928A95E9F7FA2CBDC0EE2021F32091BE
:103EE0001D03822F82958F7090E002973CF28091A3
:103EF0001803909119039A8389831B82DD82CC82F7
:103F00002E83CE010196B8CFC816D90638F0C81A4C
:103F1000D90AB8ECCB16D10450F007C08095909523
:103F20008C0D9D1D883C910510F0F12C3EC0FE2C9F
:103F3000EE2009F4B8CF621327C0531325C0209197
:103F40001D0320FD18C0822F82958F70482F50E0EE
:103F50004115510581F0F80125834F30510541F09D
:103F60008F5F982F9295907F822F8F70892B8583FA
:103F7000C8010E94580386E0F801A8E1B3E001906F
:103F80000D928A95E1F766C03D872E878D859E85C7
:103F90000E94371E811172CF80911D038160809332
:103FA0001D03C8010E94580355C0E8E1F3E086E014
:103FB000DF011D928A95E9F74DC0EE2009F473CF19
:103FC0003D872E878D859E850E94371EF82E88237B
:103FD00009F469CF86E0F801A8E1B3E001900D9201
:103FE0008A95E1F780911803909119030E94692343
:103FF00092959F70963041F48091F70291E0892765
:104000008093F7029093F6020E944C2423C03D87D0
:104010002E878D859E850E946923292F22952F70DA
:10402000223028F49F7039F0811105C00BC0243074
:1040300028F49F7049F4805E883020F0C8010E9407
:104040005803BF2CFB2C06C0D80115969C91907F7D
:1040500091F7F8CF8F2D61960FB6F894DEBF0FBEA3
:10406000CDBFDF91CF911F910F91FF90EF90DF9027
:10407000CF90BF90AF90089510928903109288035B
:104080000E94E12280E090E00E94851C80E090E0A8
:104090000C946F1C10928A0380910601882331F0E2
:1040A0008091730287FF02C08EE101C086E0EAEFD3
:1040B000F2E0DF011D928A95E9F70C943C208823F9
:1040C00041F08095909189038923809389030C9412
:1040D000E1220895882339F090918903892B8093F8
:1040E00089030C94E1220895882341F080959091F2
:1040F0008A03892380938A030C94E12208958823FC
:1041000039F090918A03892B80938A030C94E122E1
:104110000895882309F458C0682F823869F40E94F2
:104120009B1C81FF51C069E388EF92E00E9421222D
:104130000E94E12269E30EC0833891F40E949B1C27
:1041400080FF42C063E588EF92E00E9421220E9436
:10415000E12263E588EF92E00E94F9210C94E122CC
:10416000843869F40E949B1C82FF2EC067E488EFAC
:1041700092E00E9421220E94E12267E4EBCF8CEFC3
:10418000860F813A38F380E2860F883070F46770CA
:1041900081E090E001C0880F6A95EAF780959091E0
:1041A0008A03892380938A03D9CF8BE5860F8330D6
:1041B00020F480E090E00C94851C685A673120F46C
:1041C00080E090E00C946F1C0895CF93C82F0E945C
:1041D000B424C93349F42FEF87EE93E02150804097
:1041E0009040E1F700C000008C2FCF910C94892003
:1041F000089580912E020895CF93DF93209151026C
:104200002430E1F520910601222339F02091730238
:1042100027FF03C060E222E002C068E021E02093B3
:10422000E9002FEF3091E800215035FD06C035ED53
:104230003A95F1F700002111F5CF2091E80025FF14
:104240001DC0EC0180910601811105C040E050E0E5
:1042500068E070E003C070E040E050E0CE010E94F2
:10426000D3118091E8008E778093E80080E2FE0110
:10427000AFE2B2E001900D928A95E1F7DF91CF9124
:104280000895CF93DF9300D01F92CDB7DEB7909102
:104290005102943019F589837B836A8382E080938D
:1042A000E9008FEF9091E800815095FD06C095EDF3
:1042B0009A95F1F700008111F5CF8091E80085FF14
:1042C0000DC040E050E063E070E0CE0101960E9436
:1042D000D3118091E8008E778093E8000F900F90C3
:1042E0000F90DF91CF91089578941F920F920FB69F
:1042F0000F9211248F939F93AF93BF93809190035C
:1043000090919103A0919203B09193030196A11D06
:10431000B11D8093900390939103A0939203B09367
:104320009303BF91AF919F918F910F900FBE0F900C
:104330001F901895CF92DF92EF92FF920F931F93E9
:104340002FB7F8944091900350919103609192039C
:10435000709193032FBF6A017B01EE24FF248C012F
:1043600020E030E0C016D106E206F30610F441501A
:1043700051099A01281B390BC9011F910F91FF9018
:10438000EF90DF90CF9008952FB7F894809190032D
:1043900090919103A0919203B09193032FBF089540
:1043A0001F920F920FB60F9211248F939F93AF938A
:1043B000BF9380917C02811113C0809190039091F2
:1043C0009103A0919203B09193034196A11DB11D59
:1043D0008093900390939103A0939203B0939303DF
:1043E000BF91AF919F918F910F900FBE0F901F9033
:1043F0001895209106012223C9F02091730227FF0E
:1044000015C0262F2695269526952E31C8F4FC0139
:10441000E20FF11D677081E090E001C0880F6A959E
:10442000EAF780959281892382830895FC0106969C
:104430002281621301C012823196E817F907C1F791
:104440000895209106012223C1F02091730227FFD5
:1044500014C0262F2695269526952E3130F5FC0181
:10446000E20FF11D677081E090E001C0880F6A954E
:10447000EAF79281892B82830895FC0132962FEF0F
:1044800030E04191641789F02F3F19F4411101C0C8
:10449000232F3F5F3630A9F72F3F39F0FC01E20FA1
:1044A000F11D27FDFA95628308950895CF9384E066
:1044B00090E00E94EE25C82F81E290E00E94EE2558
:1044C0002C2F30E0A901582BCA01CF9108956FEE2F
:1044D0007EEF80E090E00E94202660E082E090E0A5
:1044E0000E94022660E083E090E00E940226109283
:1044F0008C0310928D0310928E0310928F0360E054
:1045000084E090E00E94022660E081E290E00E9458
:10451000022660E085E090E00E94022660E086E0EE
:1045200090E00E9402266FEF87E090E00E94022652
:1045300040E050E0BA0188E090E00E94142660E07C
:104540008DE090E00E94022640E050E0BA0188E150
:1045500090E00E94142660E087E190E00E9402262D
:1045600040E050E0BA018CE190E00E94142660E047
:1045700080E290E00E940226109261021092620294
:10458000109263021092640284E080618093610261
:1045900040916102509162026091630270916402E5
:1045A0008FE090E00E94142640E050E0BA0183E1E1
:1045B00090E00C94142680918B03811110928B0350
:1045C000089590918A0380918903892B2091880313
:1045D000982F922B9093F80280918B038823D9F027
:1045E000892B8093F80280910601882331F0809115
:1045F000730287FF02C08EE101C086E0EAEFF2E0BD
:1046000090E0815028F021912223D9F39F5FF9CFC8
:1046100091110E94DB22E0917A02F0917B023097A7
:10462000A9F080910601882359F08091730287FFD9
:1046300007C08091F8028093F90285E08093F80228
:104640000280F381E02D88EF92E009940895BF92F3
:10465000CF92DF92EF92FF920F931F93CF93DF934E
:104660008C01C0907602D0907702E0907802F090B2
:10467000790280918C0390918D03A0918E03B0916B
:104680008F03C82AD92AEA2AFB2ACFE1D0E0D70132
:10469000C6010C2E04C0B695A795979587950A94E8
:1046A000D2F780FD04C0219790F7B12C07C0BC2E33
:1046B000B8018C2F0E94770D0197A9F38B2DDF9104
:1046C000CF911F910F91FF90EF90DF90CF90BF900F
:1046D0000895CF93DF93EC010E942723BE010E942F
:1046E000770DDF91CF910895292F220F920F990F07
:1046F000890F682F669566956695982F977085E067
:10470000689FB001112440E050E080E0FB01E40F1D
:10471000F51FE05BFC4F208130E0092E02C036958A
:1047200027950A94E2F721703327042E01C0220F47
:104730000A94EAF7822B4F5F5F4F4530510531F7FE
:104740000895292F220F920F990F890FE82FE695D0
:10475000E695E695877051E001C0550F8A95EAF716
:1047600085E0E89FF0011124E05BFC4F20E030E0A1
:1047700070E04081CB01022E02C0969587950A9485
:10478000E2F78170819584278523842781932F5FA9
:104790003F4F2530310569F708950E941B0F609344
:1047A00076027093770280937802909379020C944A
:1047B0003C200F931F9341E050E060E070E004C0A4
:1047C000440F551F661F771F8A95D2F74095509565
:1047D000609570958091760290917702A091780211
:1047E000B09179028A019B01082319232A233B23D4
:1047F000C901B8011F910F910C94CD23209187031B
:104800008095822380938703982F977079F430E006
:10481000482F082E000C550B2417350739F08595C5
:10482000859585950E94D9231092870308950F934B
:104830001F9341E050E060E070E004C0440F551F5A
:10484000661F771F8A95D2F7809176029091770242
:10485000A0917802B09179028A019B01082B192B53
:104860002A2B3B2BC901B8011F910F910C94CD232A
:1048700060938C0370938D0380938E0390938F03CA
:104880000C943C2080914F0390911E03891719F0DE
:104890008F5F8770FBCF0895CF9380911D03829522
:1048A0008F7009F05FC080911A03882309F45AC001
:1048B00080914F03B0911E0370911803A0911903CA
:1048C00040911B0350911C0391E07F3F09F090E061
:1048D000692FC6E08B1709F445C04115510521F039
:1048E000AF3F21F020E003C021E001C0262F90E07F
:1048F00020FD35C0C89FF001C99FF00D1124E15E75
:10490000FC4F21812A132BC02081271328C022812C
:10491000211125C0238134812417350710F421503B
:104920003109241B350B283C3105C8F420911D03A7
:104930002F70206120931D0326E0289FF001299FFE
:10494000F00D1124EC5DFC4F80818F7080618083BD
:1049500088E193E00E945803CF910C944224019681
:104960008770B8CFCF910895882309F480C0682F4D
:104970008238B1F40E949B1C81FD79C069E388EF05
:1049800092E00E9421220E94E1222FEF81EE94E02A
:10499000215080409040E1F700C0000069E317C05B
:1049A0008338D9F40E949B1C80FD61C063E588EFC9
:1049B00092E00E9421220E94E1222FEF81EE94E0FA
:1049C000215080409040E1F700C0000063E588EF8F
:1049D00092E00E94F9210C94E1228438B1F40E9403
:1049E0009B1C82FD44C067E488EF92E00E94212274
:1049F0000E94E1222FEF81EE94E021508040904010
:104A0000E1F700C0000067E4E2CF8CEF860F813A47
:104A100028F488EF92E00E942122DDCF80E2860F09
:104A2000883068F4677081E090E001C0880F6A9573
:104A3000EAF790918A03892B80938A03CCCFEBE528
:104A4000E60FE33038F4F0E0E351FE4F808190E070
:104A50000C94851C685A673150F4E62FF0E0EE0F95
:104A6000FF1FE051FE4F808191810C946F1C0895CF
:104A70001092B9008CE08093B8000895EF92FF92F5
:104A80000F931F93CF93DF93182FEB011092BC006D
:104A900084EA8093BC000E94C4217C018091BC0008
:104AA00087FD0EC0CF3F8FEFD807C1F30E94C4210E
:104AB0008E199F098C179D0788F38EEF9FEF2EC0EC
:104AC0008091B900887F883041F08091B900887F5B
:104AD000803119F08FEF9FEF21C01093BB0084E865
:104AE0008093BC000E94C4218C018091BC0087FD92
:104AF0000CC0CF3F8FEFD807C1F30E94C421801BA9
:104B0000910B8C179D0788F3D8CF8091B900887FCF
:104B1000883111F08034F1F680E090E0DF91CF91A0
:104B20001F910F91FF90EF9008950F931F93CF93D4
:104B3000DF93EB018093BB0084E88093BC000E946C
:104B4000C4218C018091BC0087FD0EC0CF3F8FEF48
:104B5000D807C1F30E94C421801B910B8C179D07BD
:104B600088F38EEF9FEF0CC02091B900287F81E081
:104B700090E0283211F480E090E0919581959109C0
:104B8000DF91CF911F910F9108950F931F93CF93B2
:104B9000DF93EC0184E88093BC000E94C4218C0167
:104BA0008091BC0087FD0EC0CF3F8FEFD807C1F3C7
:104BB0000E94C421801B910B8C179D0788F38EEFF8
:104BC0009FEF03C08091BB0090E0DF91CF911F91D8
:104BD0000F91089584E98093BC000895F999FECF60
:104BE00092BD81BDF89A992780B50895A6E1B0E0FD
:104BF00044E050E00C942826A8E1B0E042E050E008
:104C00000C942826262FF999FECF92BD81BDF89AE3
:104C1000019700B4021639F01FBA20BD0FB6F89400
:104C2000FA9AF99A0FBE08950396272F0E94032639
:104C30000E940226252F0E940326242F0C9403266F
:104C40000196272F0E9403260C940226DC01CB013B
:104C5000FC01F999FECF06C0F2BDE1BDF89A31968C
:104C600000B40D9241505040B8F7089587FB082ECC
:104C7000062687FD819567FD61950E9472260EF4D8
:104C8000919507FC81950895AA1BBB1B51E107C0B4
:104C9000AA1FBB1FA617B70710F0A61BB70B881FCC
:104CA000991F5A95A9F780959095BC01CD0108955B
:104CB00097FB072E16F4009407D077FD09D00E94C9
:104CC000442607FC05D03EF4909581959F4F0895AA
:104CD000709561957F4F0895EE0FFF1F0590F49139
:104CE000E02D0994991B79E004C0991F961708F0EC
:104CF000961B881F7A95C9F7809508950F931F9387
:104D0000CF93DF938230910510F482E090E0E09140
:104D10009603F091970320E030E0A0E0B0E03097F8
:104D200019F1408151810281138148175907C8F058
:104D30008417950769F4109731F012960C93129727
:104D400013961C9327C0009396031093970322C0D9
:104D50002115310519F04217530718F49A01BD01C6
:104D6000EF01DF01F801DBCF21153105F9F0281B38
:104D7000390B2430310580F48A819B8161157105DE
:104D800021F0FB019383828304C090939703809367
:104D90009603FE01329644C0FE01E20FF31F819399
:104DA000919322503109398328833AC0209194038A
:104DB00030919503232B41F420910201309103019E
:104DC00030939503209394032091000130910101C9
:104DD0002115310541F42DB73EB7409104015091A2
:104DE0000501241B350BE0919403F0919503E21724
:104DF000F307A0F42E1B3F0B2817390778F0AC01FE
:104E00004E5F5F4F2417350748F04E0F5F1F5093DA
:104E10009503409394038193919302C0E0E0F0E006
:104E2000CF01DF91CF911F910F910895CF93DF9321
:104E3000009709F481C0FC01329713821282A0917D
:104E40009603B0919703109781F420813181820FEE
:104E5000931F20919403309195032817390751F53A
:104E6000F0939503E093940367C0ED0120E030E0F8
:104E7000CE17DF0740F44A815B819E014115510541
:104E8000F1F0EA01F5CFD383C28340815181840FD1
:104E9000951FC817D90759F488819981840F951FE8
:104EA0000296918380838A819B81938382832115DB
:104EB000310529F4F0939703E09396033DC0E9018F
:104EC000FB83EA8349915991C40FD51FEC17FD0765
:104ED00061F480819181840F951F0296E901998385
:104EE0008883828193819B838A83E0E0F0E012963D
:104EF0008D919C911397009719F0FD01DC01F7CF7C
:104F00008D919C9111979D012E5F3F4F820F931FB2
:104F100020919403309195032817390769F430974D
:104F200029F4109297031092960302C01382128202
:104F3000B0939503A0939403DF91CF910895FC0162
:104F40004150504030F001900616D1F73197CF0113
:0C4F50000895882799270895F894FFCF52
:104F5C00000098032000012000F920FC20F8208B91
:104F6C0016821601191A1B1C1D1E1F20212201025C
:104F7C000001020202020606060909090909090FC5
:104F8C000F0F0F0F0F1515151819191919191919C4
:104F9C001919192324000D010D020D030D040D0523
:104FAC000D000C010C020C030C040C050C000B0185
:104FBC000B020B030B040B050B000A010A020A037C
:104FCC000A040A050A000901090209030904090572
:104FDC000900080108020803080408050800070175
:104FEC00070207030704070507000601060206036C
:104FFC000604060506000501050205030504050562
:10500C000500040104020403040404050400030164
:10501C00030203030304030503000201020202035B
:10502C000204020502000101010201030104010551
:10503C0001000001000200030004000500818283CE
:10504C00E200E900EA00B500B600B700CD0083012C
:10505C00CC008A0192019401210223022402250230
:0E506C00260227022A02B300B4006F00700073
:00000001FF
